:1000000029C000003AC0000038C0000036C000001F
:1000100034C0000032C0000030C000002EC000001C
:100020002CC000002AC0000028C0000026C000002C
:1000300024C0000022C0000020C000001EC000003C
:100040001CC000001AC0000018C0000016C000004C
:1000500014C0000011241FBECFE5D8E0DEBFCDBF25
:1000600010E0A0E6B0E0EAE5FCE002C005900D92E9
:10007000A236B107D9F702D5EEC5C2CFBF92CF9253
:10008000DF92D901EAE2F8E30F921F92D72EC62E33
:10009000B82E242F1B2E0A2E09952131F9F71F9017
:1000A0000F90DF90CF90BF900895BF92CF92DF92D4
:1000B000D901EAE2FFE30F921F92D72EC62EB82E87
:1000C000242F1B2E0A2E09952131F9F71F900F902E
:1000D000DF90CF90BF900895CF93DF93FA01E901AD
:1000E0002138310510F0C0E8D0E0AB01BC01407808
:1000F0009E01CF01BAD4CE01DF91CF9108952F9206
:100100003F924F925F926F927F928F929F92AF92A7
:10011000BF92CF92DF92EF92FF920F931F93CF93F4
:10012000DF93E9012138310510F0C0E8D0E04E013D
:10013000969487946B017C0120E8C2225A01DA016F
:1001400020E030E060E070E028153905B9F0F601F4
:10015000E41BF50BEA0FFB1F85919491ED91FD9146
:100160008E179F0709F071E0E095F0958E2B9F2B7D
:10017000019609F061E02F5F3F4FE6CF772351F101
:100180001801662339F020E030E043E0C701B601F2
:10019000F80109952601370100E010E0081519055E
:1001A00089F0F501219131915F0141E0C301B20174
:1001B000F1010995F2E04F0E511C611C711C0F5F9B
:1001C0001F4FECCF20E030E045E0C701B601F10160
:1001D000099502C0C0E0D0E0CE01DF91CF911F9120
:1001E0000F91FF90EF90DF90CF90BF90AF909F90D6
:1001F0008F907F906F905F904F903F902F900895D9
:1002000061C00000A0C0000084C0000082C00000E7
:1002100080C000007EC000007CC000007AC00000EA
:1002200078C0000076C0000074C0000072C00000FA
:1002300070C000006EC000006CC000006AC000000A
:1002400068C0000066C0000064C0000062C000001A
:1002500060C00000EC2DFD2DB7B6B0FCFDCF27BF70
:10026000E895B7B6B0FCFDCF21E1B7B6B6FCF4CF48
:100270000895090212000101008032090400000003
:100280000000000012011001FF000008C016DC058C
:100290000201010200010E035500530042006100FB
:1002A000730070001C037700770077002E00660053
:1002B00069007300630068006C002E006400650034
:1002C0000403090411241FBECFE5D8E0DEBFCDBF73
:1002D00024B7D8E0CEE539913833399109F03FEFB2
:1002E00030939C0020939B0010E0A0E6B0E0E4E691
:1002F000F8E702C005900D92A636B107D9F720E0C5
:10030000A6E6B0E001C01D92AB39B207E1F778D1A3
:10031000A7C376CFA82FB92F80E090E041E050EA44
:10032000609530E009C02D9182279795879510F050
:1003300084279527305EC8F36F5FA8F30895EADF3E
:100340008D939D930895CF93CFB7CF93DF93C395AC
:10035000839BE9F7839B0BC0839B09C0839B07C0EA
:10036000839B05C0839B03C0839B01C089C06F939F
:10037000C0917E00DD27CB57DF4F2F9365E5839B30
:1003800003C02F916F91E6CF0F931F934F9320E0FF
:1003900040E15F9300B30C7003FB27F93F9350E0FB
:1003A0003BE039C01C7040642F77012F5F5F1EC097
:1003B000406810B31C702F7752501FC0406400B3C8
:1003C0002F770C70D1F15F5F00C023C0406210B383
:1003D0002F771C7091F15F5F00C025C00C70102753
:1003E000515012F45D5F0000115027952C3F10B35F
:1003F000C8F61C700127015027952C3FC8F64227EC
:10040000499300B30C7010274F73115027952C3F60
:10041000A8F64695469510B31C7079F00127015057
:1004200027952C3F98F66B5A60F3315000B3B0F625
:1004300000C010E41ABF002717C03B503195C31B02
:10044000D04010E41ABF0881033CF9F00B34E9F006
:1004500020917C001981110F1213EDCF093651F153
:100460000D3211F0013E39F7009383003F915F9107
:100470004F911F910F912F916F91CAB7C6FD67CF12
:10048000DF91CF91CFBFCF91189520918300222388
:1004900069F310918100112339F534303AF130932A
:1004A000810020937D0010917E003BE0311B309352
:1004B0007E001CC0009181000130B4F40AE5309147
:1004C000610034FD14C000936100C1E7D0E013C0A7
:1004D000052710E000C0000002BB1AC0052710E08D
:1004E000221F1DC010E021C04AE502C032ED432F9B
:1004F000C4E1D0E032E011B31C60939A02B311BBA7
:100500005CE020E865E320FF052702BB27951795EF
:100510001C3FF0F66695B8F7B1F720FF052702BB40
:10052000279517951C3FD0F62795179517FF052798
:1005300000001C3F02BBB0F629913A9519F7037FE2
:1005400010918200110FC651D04002BB11F01093E0
:100550007C0010E41ABF086011B3137F402F437F63
:1005600054E05A95F1F702BB11BB42BB7FCFDC01CF
:1005700013963C911397932F1496EC9114978E2F0A
:1005800012962C911297203331F4E370F0E0EE597B
:10059000FF4F80810895283529F431110EC0E1E024
:1005A000F0E006C0203571F4311128C0E0E0F0E041
:1005B00089E080935700849108953830F9F4E3E09E
:1005C000F0E0F6CF203221F4FC01EE0FFF1F06C051
:1005D000283231F4880F991FFC01319684910895D7
:1005E000203A09F428C2203C21F415966C912BD2B4
:1005F00005C02F3F19F481EF80936F0080E00895CC
:1006000011BA80E282BB81E08BBF82E08BBFE0E069
:10061000F1E7A89531978040E1F780919B00877FB3
:1006200021F480919C00882369F0859B0BC0F8948D
:100630008B9A12BA1BBE15BE81E08BBF1BBEE0E0D9
:10064000F0E009958EEF80936F0014BE0FB6F8941A
:10065000A89581B5886181BD11BC0FBE85B7826048
:1006600085BF8BB780648BBF8B9A8CE0E0E0F5E3AD
:10067000A89531978040E1F78B987894109181008C
:10068000135017FD41C180917E00CCE0D0E0C81B23
:10069000D109CB57DF4F80917D008D3209F0B8C072
:1006A000183009F02FC183EC809371008AE58093A4
:1006B0006100109270003881832F807699818823A1
:1006C000C1F146E650E05093800040937F009330A4
:1006D00031F4CE014CDF8093690084E08FC0953007
:1006E00009F48BC09A3009F488C08CEF890F8630EA
:1006F000B0F44A815B8150936E0040936D00993055
:1007000009F491C18E8180936C002D812270209319
:100710006B0090936A0037FD6CC08FEF6AC08091C8
:100720006F00923011F48E7F01C0816080936F0062
:100730007AC18A8110927A00911106C010927B00D2
:100740002AE730E082E050C0953019F480938200AF
:100750003DC09630A9F59B81913019F484E890E76B
:1007600004C0923041F482E790E790938000809338
:100770007F0082E121C09330F1F4811108C080EC48
:1007800090E79093800080937F0084E015C08130D3
:1007900041F484EA90E79093800080937F008CE19D
:1007A0000BC0823041F486E990E7909380008093FB
:1007B0007F008EE001C080E090E4909370001EC046
:1007C000983079F0993031F4809384002AE730E052
:1007D00080E00AC081E09A3009F080E02AE730E04A
:1007E00003C024E830E081E03093800020937F0054
:1007F00005C090E89093700008C081E09F8191113E
:1008000004C09E81981708F4892F809360007AC0F5
:100810008091700087FF76C000916C00011708F48A
:10082000102F011B00936C00F12CF11608F066C02C
:1008300020916A0080916D0090916E00273080F0C9
:100840006E01FFEFCF1ADF0A68819C012F5F3F4FD7
:1008500030936E0020936D00F6D0F394E601E5CF5F
:100860008115904708F04CC0F394F394F894E0910C
:100870006D00F0916E002991399181E0090180931A
:100880005700E8951124789480916D0090916E0046
:10089000029690936E0080936D008F779927892B35
:1008A00051F00111C2CFF11608F4BFCF80916B0057
:1008B000882309F4BACFF894E0916D00F0916E00AE
:1008C000329783E080935700E895789407B600FC50
:1008D000FDCFF894E0916D00F0916E00329785E0C5
:1008E00080935700E895789407B600FCFDCFF89404
:1008F00081E180935700E895789497CF011102C069
:1009000010926000109281008091610084FF67C0A6
:10091000809160008F3F09F462C0C82F893008F0D1
:10092000C8E08C1B809360009091710088E8892753
:1009300080937100CC2309F478C08091700087FF08
:100940002AC080916C008C1708F4C82F8C1B8093F0
:100950006C00D0906A00D0E082E7E82E80E0F82EAC
:10096000CD1789F100916D0010916E0086E08D1514
:1009700018F4C80160D002C0F8018491F7018083A7
:10098000FFEFEF1AFF0A0F5F1F4F10936E000093E7
:100990006D00DF5FE5CFE0917F00F0918000A2E77E
:1009A000B0E086FF07C08C2F94919D9331968150C3
:1009B000D9F705C08C2F91919D938150E1F7F09369
:1009C0008000E0937F006C2F82E790E0B8DCCC5F82
:1009D000CC3019F08FEF80936000C093610084E108
:1009E00090B39C7031F48150D9F71092820010922C
:1009F0007C0080916F00803130F0859B0FC080912A
:100A00006F00805109C0859909C080916F008230C4
:100A100028F080916F00825080936F0080916F006A
:100A200081112CCE04CE80E0E9CE60E082E790E038
:100A300086DCC4E0CFCFE199FECF9FBB8EBBE09AAE
:100A400099278DB30895262FE199FECF9FBB8EBBCA
:100A50002DBB0FB6F894E29AE19A0FBE0196089565
:100A6000F894FFCFFF5A1E950200FA01DC0102C084
:100A700005900D9221503040D8F708958F929F92A3
:100A8000AF92BF92CF92DF92EF92FF920F931F939C
:100A9000CF93DF93CDB7DEB7C058D1090FB6F89426
:100AA000DEBF0FBECDBF14BE0FB6F894A89581B5BA
:100AB000886181BD11BC0FBEF8941982209160003D
:100AC0003091610080E090E7F90165917491FC013B
:100AD000459154916417750719F081E0898307C027
:100AE0002E5F3F4F02968A3648E7940769F789815F
:100AF000882309F493C024E5C22E20E7D22EE12CEE
:100B0000F12CB701A601407820E830E0CE01019633
:100B1000ACDFC701B6016455724F8F4F9F4F0EE394
:100B200010E020E830E0AE014F5F5F4FE8DA80E888
:100B3000C80ED11CE11CF11C44E5C41642E7D406E2
:100B4000E104F104F1F6812C90E7992EA12CB12C4F
:100B5000E12CF12C40E850E06FEF70E0CE010196FF
:100B600073D040916000509161004E0D5F1D052EC5
:100B7000000C660B770B20E830E0CE01019675DFA4
:100B800005E510E020E830E0AE014F5F5F4FC501A2
:100B9000B401B5DA80E8880E911CA11CB11C40E8B4
:100BA000E41642E0F40621F080E8E80EF11CD2CF12
:100BB0008AEEC82E85E0D82E40E850E06FEF70E056
:100BC000CE01019641D0960141E8C416D10410F03F
:100BD00020E830E040916000509161004E0D5F1DB3
:100BE000052E000C660B770BCE0101963EDFB70198
:100BF000705980E090E00EE310E020E830E0AE01B4
:100C00004F5F5F4F7CDA80E8E80EF11C40E8C41AC1
:100C1000D1088AE6E81688E0F80670F280E090E0F5
:100C2000C058DF4F0FB6F894DEBF0FBECDBFDF91C7
:100C3000CF911F910F91FF90EF90DF90CF90BF90D9
:100C4000AF909F908F900895DC0101C06D9341504B
:0A0C50005040E0F70895F894FFCF3C
:020C5A00000296
:00000001FF
